:020000040800F2
:10000000A806002029020008310200083302000877
:10001000350200083702000839020008000000001D
:100020000000000000000000000000003B0200088B
:100030003D020008000000003F02000841020008E5
:10004000430200084302000843020008430200087C
:10005000430200084302000843020008430200086C
:10006000430200084302000843020008430200085C
:10007000430200084302000843020008430200084C
:10008000430200084302000843020008430200083C
:10009000430200084302000843020008430200082C
:1000A000430200084302000843020008430200081C
:1000B00061080008710800084302000843020008B4
:1000C00043020008430200084302000843020008FC
:1000D00043020008430200084302000843020008EC
:1000E00043020008430200084302000843020008DC
:1000F00043020008430200084302000843020008CC
:1001000000000000000000000000000043020008A2
:1001100043020008430200084302000843020008AB
:10012000430200084302000843020008430200089B
:100130004302000843020008000000000000000025
:1001400043020008430200084302000800000000C8
:10015000000000000000000000000000000000009F
:1001600000000000000000004302000843020008F5
:100170004302000800000000000000000000000032
:10018000000000004302000800F002F800F03CF814
:100190000AA090E8000C82448344AAF10107DA45E2
:1001A00001D100F031F8AFF2090EBAE80F0013F0F8
:1001B000010F18BFFB1A43F0010318474C0A000057
:1001C0006C0A0000103A24BF78C878C1FAD85207E8
:1001D00024BF30C830C144BF04680C6070470000C1
:1001E0000023002400250026103A28BF78C1FBD840
:1001F000520728BF30C148BF0B6070471FB500F0E1
:10020000FDFC1FBD10B510BD00F031F81146FFF721
:10021000F5FF00F0ABFC00F04FF803B4FFF7F2FF7E
:1002200003BC00F057F80000094880470948004720
:10023000FEE7FEE7FEE7FEE7FEE7FEE7FEE7FEE796
:10024000FEE7FEE704480549054A064B70470000F3
:10025000DD07000889010008A8000020A80600208A
:10026000A8020020A802002070477047704775461A
:1002700000F02CF8AE4605006946534620F0070012
:10028000854618B020B5FFF7DDFFBDE820404FF0F0
:1002900000064FF000074FF000084FF0000B21F070
:1002A0000701AC46ACE8C009ACE8C009ACE8C0093D
:1002B000ACE8C0098D46704710B50446AFF3008026
:1002C0002046BDE81040FFF7A8BF00000048704777
:1002D0004800002001491820ABBEFEE726000200BE
:1002E0007047000030B500243AE0002534E029468C
:1002F000204600F0B9FB04EB44001B490844405D74
:100300001A490978884206DD04EB4400164908447E
:10031000405D1649087004EB440013490844405DF1
:10032000C0B113480078022814DA04EB44001149E4
:100330000844415D10480E4A127881540F480C4918
:10034000097844540A4801780078401C084A107023
:100350000B484554681CC5B2032DC8DB601CC4B2F1
:10036000042CC2DB30BD00003C0000200500002052
:1003700006000020070000201300002001000020DC
:100380000300002010B536490978481CC11700EB5E
:1003900091718910A0EB8101314A117010460078EB
:1003A000A0B94FF480612F4800F0B4F84FF48051A9
:1003B0002C4800F0AFF84FF480412A4800F0AAF82A
:1003C0004FF48071274800F0A3F847E024480078F4
:1003D000012813D10102234800F09CF84FF480510A
:1003E000204800F097F84FF480411E4800F092F842
:1003F0004FF480611B4800F08BF82FE0184800781C
:10040000022813D14102174800F084F84FF480719C
:10041000144800F07FF84FF48041124800F07AF859
:100420004FF480510F4800F073F817E00C48007843
:10043000032813D14FF480610A4800F06BF84FF4A1
:100440008071084800F066F84FF48051054800F0CC
:1004500061F84FF48041034800F05AF810BD0000E5
:100460000000002000100048F0B50A4600210024DA
:100470000025002300BF3FE0012606FA01F41668BC
:1004800006EA0405A54236D11679012E02D0167966
:10049000022E18D186684FEA410C032707FA0CF7A1
:1004A000BE43866056794F00BE4087683E438660F3
:1004B000868801278F40BE438680878896798E4044
:1004C000B6B23743878006684FEA410C032707FA24
:1004D0000CF7BE43066016794F00BE4007683E43E6
:1004E0000660C3684F000326BE40B343D6794F0071
:1004F000BE403343C360491C1029BDD3F0BD024642
:100500000020138A0B400BB1012000E0002070474F
:10051000018570478161704710B54FF480611148C3
:10052000FFF7EDFF1049097801EB41010F4A5054E4
:100530004FF480510B48FFF7E2FF0B49097801EBBC
:1005400041010A4A114448704FF480410548FFF7C1
:10055000D6FF0549097801EB4101044A114488702E
:1005600010BD00000004004800000020180000201A
:100570001CB50121480500F0AFF84FF480700090E1
:1005800001208DF8040002208DF8050001208DF86F
:10059000060000208DF8070069464748FFF764FF12
:1005A0000121480500F098F84FF480600090012088
:1005B0008DF8040002208DF8050001208DF806005A
:1005C00000208DF8070069463B48FFF74DFF0121E9
:1005D000480500F081F84FF48050009001208DF81C
:1005E000040002208DF8050001208DF8060000208F
:1005F0008DF8070069463048FFF736FF01214805AE
:1006000000F06AF84FF48040009001208DF804005B
:1006100002208DF8050001208DF8060000208DF8DD
:10062000070069462448FFF71FFF0121880400F0F6
:1006300053F84FF48060009000208DF804000220F1
:100640008DF8050000208DF8060001208DF80700C8
:1006500069461A48FFF708FF0121880400F03CF8BA
:100660004FF48050009000208DF8040002208DF897
:10067000050000208DF8060001208DF8070069466E
:100680000E48FFF7F1FE0121880400F025F84FF431
:100690008040009000208DF8040002208DF80500B5
:1006A00000208DF8060001208DF8070069460348F8
:1006B000FFF7DAFE1CBD00000010004800040048EF
:1006C00000F01F02012191404209920002F1E02254
:1006D000C2F800117047000029B1064A526902436E
:1006E000044B5A6104E0034A52698243014B5A6148
:1006F000704700000010024029B1064AD269024347
:10070000044BDA6104E0034AD2698243014BDA61A7
:1007100070470000001002400CB5002001900090CE
:100720002C48006840F480302A49086000BF2948FE
:10073000006800F4003000900198401C019000987F
:1007400018B90198B0F5A04FF1D12248006800F423
:10075000003010B10120009001E0002000900098CE
:10076000012836D112201C4908601A4840681949EE
:1007700048600846406848600846406840F4806029
:1007800048600846406820F47C104860084640688D
:1007900040F4E81048600846006840F08070086047
:1007A00000BF0C48006800F000700028F9D009482C
:1007B000406820F00300074948600846406840F060
:1007C0000200486000BF0348406800F00C000828A1
:1007D000F9D10CBD001002400020024010B51B48AA
:1007E000006840F47000194908601948006840F03A
:1007F0000100174908600846406816490840144936
:1008000048600846006814490840114908600846D5
:10081000006820F4802008600846406820F4FE004C
:1008200048600846C06A20F00F00C8620846006BA6
:100830000A4908400649086300208860FFF76CFFFA
:100840004FF0006001498039086010BD88ED00E07C
:10085000001002400CC07FF8FFFFF6FECCFC00FF4A
:1008600010B50121880700F083F8FFF78BFD10BD5C
:1008700010B50121364800F07BF8FFF74DFE3548F2
:100880000078032801D1FFF72DFD334800780228B6
:1008900028D100203049087030480078022805D15E
:1008A0002F4A5178107800F0DDF807E02B480078E7
:1008B000012803D12A49087800F06FF9002029495E
:1008C000097801EB4101284A1144284A12788854DA
:1008D0002449497801EB4101234A1144234A5278C3
:1008E000885434E01C480078012828D100201A4997
:1008F00008701A480078022805D1194A51781078F2
:1009000000F0AFF807E015480078012803D114493A
:10091000087800F041F900211248007800EB40000F
:10092000114A1044114A127881540E48407800EB65
:1009300040000D4A10440D4A5278815407E00020CF
:10094000064908700649087048700349087010BDD0
:1009500000040040000000200500002006000020E8
:1009600013000020010000203C00002003000020B4
:10097000CA4392B20261704721B1028842F001027B
:10098000028004E002884FF6FE731A40028070472E
:1009900010B51AB1C3680B43C36004E0C368CC430D
:1009A000A4B22340C36010BD002202881E4B9842AF
:1009B0000ED01E4B98420BD0B0F1804F08D01C4B8C
:1009C000984205D01B4B984202D01B4B984204D151
:1009D0004FF68F731A404B881A43184B984207D032
:1009E000174B984204D04FF6FF431A400B891A4325
:1009F00002804B68C3620B8803850B4B98420ED074
:100A00000A4B98420BD00F4B984208D00E4B98429D
:100A100005D00E4B984202D0074B984201D14B892A
:100A20000386012343617047002C014000340140DC
:100A30000004004000080040005001400010004049
:100A400000140040004001400044014000480140C3
:100A50004FF0FF31416000210180018141804181DF
:100A6000704770477047000010B500EB40023B4BE9
:100A70001A44525CC2BB00EB4002394B1A44525C30
:100A8000642A16DA00EB40021A44525C521C00EB56
:100A90004003334C23445A54002200EB4003314CB2
:100AA00023445A54012200EB40032F4C23445A5450
:100AB00052E000EB40022C4B1A44525C022A06D052
:100AC000022200EB4003274C23445A5405E0002245
:100AD00000EB4003234C23445A54022200EB400312
:100AE000214C23445A5437E0FFE700EB40021C4BF3
:100AF0001A44525C002A1EDD00EB40021A44525C8C
:100B0000642A0CDA002200EB4003174C23445A54A9
:100B1000012200EB4003134C23445A5416E00022F8
:100B200000EB4003104C23445A5400EB40030D4C9F
:100B300023445A540AE0002200EB40030A4C2344A9
:100B40005A5400EB4003074C23445A54002200EB54
:100B50004003034C23445A5410BD000018000020E9
:100B6000300000203C0000202400002000F016F897
:100B7000FFF7FEFC1C20FFF7A3FD1D20FFF7A0FDE3
:100B80000020034908700349087000BFFEE7000019
:100B90000500002006000020704770470EB50121B7
:100BA0000320FFF7A9FD6846FFF752FF42F21070DD
:100BB00001901020ADF800000020ADF80200694659
:100BC0004FF08040FFF7F0FE012211469007FFF73B
:100BD000DFFE69460848FFF7E7FE01221146064896
:100BE000FFF7D6FE01218807FFF7C6FE0121024864
:100BF000FFF7C2FE0EBD0000000400404FF0407041
:100C0000E1EE100A70470000280C000800000020E8
:100C100018000000C4010008400C00081800002063
:100C200090060000E0010008000000000000003114
:100C300032333435363738392A302300000000008B
:0400000508000229C4
:00000001FF
